:020000040800F2
:1000000000280020AD0C0008FD0C0008FD0C0008C5
:10001000FD0C0008FD0C0008FD0C000800000000AD
:10002000000000000000000000000000FD0C0008BF
:10003000FD0C000800000000FD0C0008510A00083B
:10004000FD0C0008FD0C0008FD0C0008FD0C00086C
:10005000FD0C0008FD0C0008FD0C0008FD0C00085C
:10006000FD0C0008FD0C0008FD0C0008FD0C00084C
:10007000FD0C0008FD0C0008FD0C0008FD0C00083C
:10008000FD0C0008FD0C0008FD0C0008FD0C00082C
:10009000FD0C0008FD0C0008FD0C0008FD0C00081C
:1000A000FD0C0008FD0C0008FD0C0008FD0C00080C
:1000B000FD0C0008FD0C0008FD0C0008FD0C0008FC
:1000C000FD0C0008FD0C0008FD0C0008FD0C0008EC
:1000D000FD0C0008790B0008650C0008FD0C0008F9
:1000E000FD0C0008FD0C000800000000FD0C0008DD
:1000F000FD0C0008FD0C0008FD0C0008FD0C0008BC
:10010000FD0C0008FD0C0008FD0C0008FD0C0008AB
:10011000FD0C0008FD0C0008FD0C0008FD0C00089B
:10012000FD0C0008FD0C0008FD0C0008FD0C00088B
:1001300010B5054C237833B9044B13B10448AFF321
:1001400000800123237010BD00000020000000008B
:10015000480D000808B5034B1BB103490348AFF332
:10016000008008BD0000000004000020480D0008C9
:1001700080B500AF174B00221A7000F0DBFBCA20DD
:1001800000F0E6FBCB2000F0E3FBCC2000F0E0FB2E
:10019000D62000F0DDFB40F23D1000F0D9FB40F22C
:1001A000451000F0D5FB252000F0A0FB00F0A0FAE0
:1001B00000F0BCF800F040F800F0B4F900F062FC88
:1001C000054800F0C1FC00F0ABFC00F0F1FC00BF02
:1001D00080BD00BF1C0000201903000880B500AFDF
:1001E00000F04CF80346002B05D100F083F80346DD
:1001F000184600F057F800F00BF80346002B05D125
:1002000000F078F80346184600F04CF800BF80BDB7
:1002100080B400AF00231846BD4680BC704780B450
:1002200083B000AF0346FB80FB885B019BB218469E
:100230000C37BD4680BC704780B58AB000AF012343
:100240007B620023BB6100237B6140F25D60FFF7AE
:10025000E6FF03467B600023BB600023FB600023B6
:100260003B610023FB6101233B623B1D184600F00C
:100270006FF900BF2837BD4680BD000080B483B051
:1002800000AF0023FB71064B1B78DBB2002B01D1C2
:100290000123FB71FB7918460C37BD4680BC7047C3
:1002A0001C00002080B58AB000AF0346FB7100231C
:1002B00087F82730FB79184600F0B4FC40F25D6304
:1002C000FB6000237B610023BB610123FB610023F2
:1002D00087F82030FB793B7207F1080207F10C0325
:1002E0001146184600F078F897F827301846283756
:1002F000BD4680BD80B483B000AF064B1B78FB7158
:10030000044B00221A70FB7918460C37BD4680BC9E
:10031000704700BF1C00002080B500AF024800F00D
:10032000EBFB00BF80BD00BF1C00002080B400AF0D
:10033000284B1B68274A23F00203136000BF254B9C
:100340005B685B0803F00103002BF8D1214B1B68AD
:10035000204A43F00103136000BF1E4B5B6803F0AB
:100360000103012BF9D11B4B1B681A4A23F004032C
:100370001360184B1B68174A23F008031360154BD2
:100380001B68144A23F010031360124B1B68114AB8
:1003900043F0200313600F4B1B680E4A43F04003E9
:1003A00013600C4B1B680B4A23F08003136002237D
:1003B000013B1B051A460F23013B1B041343042278
:1003C000013A1146034A0B43D36100BFBD4680BCCE
:1003D000704700BF0064004080B485B000AF786013
:1003E00039604F4B9B68FB60FB689B0E03F0010379
:1003F000002B0CD1FB68DB0E03F00103002B06D1B0
:10040000FB681B0F03F00103002B00F08480FB68E6
:100410001B0E03F00303BB60BB68022B7BD87B6819
:100420009B68002B0CD17B681B685A057B68DB68D6
:100430003B491A43BB6818331B010B441A600EE09A
:100440007B685B68DA007B689B681A437B68DB68C3
:1004500033491A43BB6818331B010B441A603049F7
:100460007B681A69BB6818331B010B4404331A609C
:100470007B681B7D012B0FD1294ABB6818331B01F8
:10048000134404331B68264943F48072BB68183355
:100490001B010B4404331A603B6807331B781A06B0
:1004A0003B6806331B781B041A433B6805331B78F3
:1004B0001B0213433A680432127819491A43BB6885
:1004C0001B010B4403F5C6731A603B6803331B78AA
:1004D0001A063B6802331B781B041A433B6801333E
:1004E0001B781B0213433A6812780D491A43BB6804
:1004F0001B010B4403F5C4731A60094ABB68183327
:100500001B0113441B68064943F00102BB68183302
:100510001B010B441A6000BF1437BD4680BC7047F6
:100520000064004080B400AF084B1B68074A23F00A
:100530000103136000BF054B5B6803F00103002B50
:10054000F9D100BF00BFBD4680BC704700640040C9
:1005500080B485B000AF7860644BD3F80032634A52
:1005600043F00103C2F800327B685B69FB605F4BBC
:10057000D3F81C327A685269012101FA02F2D2439F
:1005800011465A4A0B40C2F81C327B68DB69002BCB
:1005900028D1564BD3F80C320121FA6801FA02F245
:1005A000D2431146514A0B40C2F80C327B68DB68DB
:1005B00019047B685B689AB24C487B685B690A43A4
:1005C000483340F833207B689B6819047B681B68BC
:1005D0009AB246487B685B690A434833DB000344B0
:1005E0005A602AE07B68DB69012B26D13F4BD3F8A8
:1005F0000C320121FA6801FA02F211463B4A0B4320
:10060000C2F80C327B681B6819047B685B689AB27D
:1006100036487B685B690A43483340F833207B687F
:100620009B6819047B68DB689AB230487B685B6919
:100630000A434833DB0003445A607B689B69002B04
:100640000DD12A4BD3F804320121FA6801FA02F2E3
:10065000D2431146254A0B40C2F804320BE0234B2B
:10066000D3F804320121FA6801FA02F211461F4A56
:100670000B43C2F804327B681B69002B0DD11B4B66
:10068000D3F814320121FA6801FA02F2D24311467A
:10069000164A0B40C2F814320BE0144BD3F8143254
:1006A0000121FA6801FA02F21146104A0B43C2F81E
:1006B00014327B681B6A012B0BD10C4BD3F81C3214
:1006C0000121FA6801FA02F21146084A0B43C2F806
:1006D0001C32064BD3F80032044A23F00103C2F85F
:1006E000003200BF1437BD4680BC70470064004034
:1006F00080B582B000AF0023FB710FE0FB790B4A9D
:1007000012F81320FB7909495B000B445B7819460A
:10071000104600F00DF8FB790133FB71FB792F2BAC
:10072000ECD9002318460837BD4680BD600D00088F
:1007300080B485B000AF03460A46FB711346BB7117
:10074000FB791B09DBB20133BB73FB7903F00F03A9
:100750007B730023FB73BB7B032B7DD0032B00F348
:10076000B680012B02D0022B3BD0B0E07B7B072B65
:1007700017D85B4B1B687A7B92000F2101FA02F2BB
:10078000D2431146564A0B401360554B1B68B9794A
:100790007A7B920001FA02F21146514A0B43136030
:1007A00098E07B7B0F2B19D84D4B5B687A7B083A1E
:1007B00092000F2101FA02F2D2431146484A0B403F
:1007C0005360474B5B68B9797A7B083A920001FA2B
:1007D00002F21146424A0B4353607BE00123FB7354
:1007E00078E07B7B072B17D83E4B1B687A7B920007
:1007F0000F2101FA02F2D24311463A4A0B4013602C
:10080000384B1B68B9797A7B920001FA02F21146E3
:10081000344A0B4313605DE07B7B0F2B19D8314BBF
:100820005B687A7B083A92000F2101FA02F2D24308
:1008300011462C4A0B4053602A4B5B68B9797A7B8E
:10084000083A920001FA02F21146264A0B4353601D
:1008500040E00123FB733DE07B7B072B17D8224B45
:100860001B687A7B92000F2101FA02F2D2431146F3
:100870001D4A0B4013601C4B1B68B9797A7B9200B0
:1008800001FA02F21146184A0B43136022E07B7B07
:100890000F2B19D8144B5B687A7B083A92000F2112
:1008A00001FA02F2D24311460F4A0B4053600E4B3D
:1008B0005B68B9797A7B083A920001FA02F2114634
:1008C000094A0B43536005E00123FB7302E0012357
:1008D000FB7300BFFB7B18461437BD4680BC7047D6
:1008E00000080140000C01400010014080B485B0B8
:1008F00000AF0346FB710023FB73FB795B09BB73FD
:10090000FB793B2B0CD8FB7903F01F03FB71FB79C0
:10091000012202FA03F1064ABB7B42F8231001E0F0
:100920000123FB73FB7B18461437BD4680BC704720
:1009300000E100E080B400AF034B044A1A6000BF3E
:10094000BD4680BC704700BF00100240800001001F
:1009500080B485B000AF0346FB80FB88254AA2FB2C
:1009600003235B099BB2BB73FB88224AA2FB0312E1
:100970005209642101FB02F29B1A9BB27B73002394
:10098000FB737B7B1F2B2DD8BB7B032B1CD0032B36
:1009900025DC012B02D0022B0BD020E0164B5B692B
:1009A0007A7B012101FA02F21146134A0B4353618B
:1009B0001AE0114B9B697A7B012101FA02F2114680
:1009C0000D4A0B4393610FE00B4BDB697A7B0121EE
:1009D00001FA02F21146084A0B43D36104E00123F5
:1009E000FB7301E00123FB73FB7B18461437BD4604
:1009F00080BC70471F85EB510010024080B582B06B
:100A000000AF0023FB71094B1B68084A23F0010368
:100A10001360064B00225A60044B00229A6000F0DB
:100A200007F8FB7918460837BD4680BD10E000E0A6
:100A300080B400AF054B1B68044A23F00203136027
:100A400000231846BD4680BC704700BF10E000E0A0
:100A500080B500AF084B1B78012B07D1FFF7CEFF05
:100A6000054B00221A70054B00221A70044B1B68BC
:100A7000984700BF80BD00BF240000202500002053
:100A80002000002080B400AF1A4B40F241329A603F
:100A9000184BDB68174A23F48063D360154BDB687F
:100AA000144A23F48053D360124B1B69114A23F478
:100AB000805313610F4B1B690E4A23F400531361DB
:100AC0000C4BDB680B4A43F00403D360094BDB6833
:100AD000084A43F00803D360064BDB68054A43F439
:100AE0000053D360034B00221A6000BFBD4680BC98
:100AF000704700BF0038014080B485B000AF786017
:100B00000023FB73054B5B68DAB27B681A70FB7BD2
:100B100018461437BD4680BC704700BF00380140FE
:100B200080B483B000AF0023FB71064BDB68054A3D
:100B300043F02003D360FB7918460C37BD4680BCD8
:100B4000704700BF0038014080B485B000AF7860C6
:100B50000023FB737B68002B03D0064A7B6813607D
:100B600001E00323FB73FB7B18461437BD4680BCB2
:100B7000704700BF2800002080B500AF0A4B1B68FB
:100B80005B0903F00103002B0CD0084B1B68002B02
:100B900002D0064B1B689847034B1B68024A23F0A0
:100BA0002003136000BF80BD0038014028000020F2
:100BB00080B400AF1A4B40F241329A60184BDB68A8
:100BC000174A23F48063D360154BDB68144A23F47F
:100BD0008053D360124B1B69114A23F48053136175
:100BE0000F4B1B690E4A23F4005313610C4BDB6857
:100BF0000B4A43F00403D360094BDB68084A43F017
:100C00000803D360064BDB68054A43F40053D36006
:100C1000034B00221A6000BFBD4680BC704700BF76
:100C20000044004080B485B000AF0346FB71002350
:100C3000FB7300BF0A4B1B68DB0903F00103002BA9
:100C4000F8D0074AFB795360054B1B68044A23F030
:100C500080031360FB7B18461437BD4680BC704789
:100C60000044004080B500AF0A4B1B685B0903F0ED
:100C70000103002B0CD0084B1B68002B02D0064B45
:100C80001B689847034B1B68024A23F0200313603C
:100C900000BF80BD004400402C00002080B500AFA4
:100CA000FFF766FAFFF79AFAFCE700000D48854661
:100CB000AFF300800C480D490D4A002302E0D458E0
:100CC000C4500433C4188C42F9D30A4A0A4C002396
:100CD00001E013600432A242FBD300F011F8FFF7E9
:100CE000DDFFFEE7002800200000002000000020BB
:100CF000C80D00080000002030000020FEE70000C2
:100D000070B500260C4D0D4C641BA410A64209D1F1
:100D100000F01AF800260A4D0A4C641BA410A642E3
:100D200005D170BD55F8043B98470136EEE755F8FC
:100D3000043B98470136F2E7C00D0008C00D0008DB
:100D4000C00D0008C40D0008F8B500BFF8BC08BC11
:100D50009E467047F8B500BFF8BC08BC9E46704779
:100D6000000201020209030404020502060207024E
:100D7000080209090A040B040C090D020E020F02F5
:100D800010021102120213021402150216021702B7
:100D9000180219021A021B021C021D021E021F0267
:100DA0002002210222022302240225022602270217
:100DB000280229022A022B022C022D022E022F02C7
:040DC00055010008D1
:040DC40031010008F1
:0400000508000CAD36
:00000001FF
