:020000040800F2
:100000000028002025080008750800087508000869
:100010007508000875080008750800080000000051
:10002000000000000000000000000000750800084B
:10003000750800080000000075080008C9050008E0
:10004000750800087508000875080008750800089C
:10005000750800087508000875080008750800088C
:10006000750800087508000875080008750800087C
:10007000750800087508000875080008750800086C
:10008000750800087508000875080008750800085C
:10009000750800087508000875080008750800084C
:1000A000750800087508000875080008750800083C
:1000B000750800087508000875080008750800082C
:1000C000750800087508000875080008750800081C
:1000D00075080008F1060008DD070008750800082B
:1000E0007508000875080008000000007508000881
:1000F00075080008750800087508000875080008EC
:1001000075080008750800087508000875080008DB
:1001100075080008750800087508000875080008CB
:1001200075080008750800087508000875080008BB
:1001300010B5054C237833B9044B13B10448AFF321
:1001400000800123237010BD00000020000000008B
:10015000C008000808B5034B1BB103490348AFF3BF
:10016000008008BD0000000004000020C008000856
:1001700080B500AF124B00221A7000F097F9CA2028
:1001800000F0A2F9CB2000F09FF9CC2000F09CF900
:10019000D62000F099F940F23D1000F095F92520A5
:1001A00000F060F900F060F800F028FA054800F06F
:1001B00087FA00F071FA00F0B7FA00BF80BD00BF07
:1001C0001C0000205502000880B500AF00F00CF8BC
:1001D0000346002B05D100F02BF80346184600F02B
:1001E00017F800BF80BD000080B483B000AF0023CB
:1001F000FB71064B1B78DBB2002B01D10123FB7195
:10020000FB7918460C37BD4680BC70471C000020A7
:1002100080B584B000AF0346FB710023FB73FB790C
:10022000184600F0BBFAFB7B18461037BD4680BD70
:1002300080B483B000AF064B1B78FB71044B0022E7
:100240001A70FB7918460C37BD4680BC704700BF5A
:100250001C00002080B500AF024800F009FA00BF82
:1002600080BD00BF1C00002080B582B000AF00231D
:10027000FB710FE0FB790B4A12F81320FB79094957
:100280005B000B445B781946104600F00DF8FB79D3
:100290000133FB71FB792F2BECD90023184608376B
:1002A000BD4680BDD808000880B485B000AF0346C5
:1002B0000A46FB711346BB71FB791B09DBB20133A4
:1002C000BB73FB7903F00F037B730023FB73BB7BD2
:1002D000032B7DD0032B00F3B680012B02D0022B21
:1002E0003BD0B0E07B7B072B17D85B4B1B687A7B3E
:1002F00092000F2101FA02F2D2431146564A0B40F6
:100300001360554B1B68B9797A7B920001FA02F2AF
:100310001146514A0B43136098E07B7B0F2B19D891
:100320004D4B5B687A7B083A92000F2101FA02F28A
:10033000D2431146484A0B405360474B5B68B9793A
:100340007A7B083A920001FA02F21146424A0B43C4
:1003500053607BE00123FB7378E07B7B072B17D88E
:100360003E4B1B687A7B92000F2101FA02F2D243C6
:1003700011463A4A0B401360384B1B68B9797A7BB7
:10038000920001FA02F21146344A0B4313605DE019
:100390007B7B0F2B19D8314B5B687A7B083A920034
:1003A0000F2101FA02F2D24311462C4A0B4053604E
:1003B0002A4B5B68B9797A7B083A920001FA02F21B
:1003C0001146264A0B43536040E00123FB733DE096
:1003D0007B7B072B17D8224B1B687A7B92000F215F
:1003E00001FA02F2D24311461D4A0B4013601C4B26
:1003F0001B68B9797A7B920001FA02F21146184A19
:100400000B43136022E07B7B0F2B19D8144B5B68E6
:100410007A7B083A92000F2101FA02F2D243114688
:100420000F4A0B4053600E4B5B68B9797A7B083AF0
:10043000920001FA02F21146094A0B43536005E0AB
:100440000123FB7302E00123FB7300BFFB7B184613
:100450001437BD4680BC704700080140000C0140C5
:100460000010014080B485B000AF0346FB7100234B
:10047000FB73FB795B09BB73FB793B2B0CD8FB79D6
:1004800003F01F03FB71FB79012202FA03F1064A14
:10049000BB7B42F8231001E00123FB73FB7B184672
:1004A0001437BD4680BC704700E100E080B400AF67
:1004B000034B044A1A6000BFBD4680BC704700BFB2
:1004C000001002408000010080B485B000AF0346F8
:1004D000FB80FB88254AA2FB03235B099BB2BB730D
:1004E000FB88224AA2FB03125209642101FB02F29B
:1004F0009B1A9BB27B730023FB737B7B1F2B2DD836
:10050000BB7B032B1CD0032B25DC012B02D0022B41
:100510000BD020E0164B5B697A7B012101FA02F2D5
:100520001146134A0B4353611AE0114B9B697A7BC6
:10053000012101FA02F211460D4A0B4393610FE0CB
:100540000B4BDB697A7B012101FA02F21146084A62
:100550000B43D36104E00123FB7301E00123FB7330
:10056000FB7B18461437BD4680BC70471F85EB5196
:100570000010024080B582B000AF0023FB71094B30
:100580001B68084A23F001031360064B00225A60DF
:10059000044B00229A6000F007F8FB7918460837F0
:1005A000BD4680BD10E000E080B400AF054B1B6885
:1005B000044A23F00203136000231846BD4680BCA2
:1005C000704700BF10E000E080B500AF084B1B781B
:1005D000012B07D1FFF7CEFF054B00221A70054B08
:1005E00000221A70044B1B68984700BF80BD00BFF3
:1005F00024000020250000202000002080B400AF4F
:100600001A4B40F241329A60184BDB68174A23F4C8
:100610008063D360154BDB68144A23F48053D360A6
:10062000124B1B69114A23F4805313610F4B1B6952
:100630000E4A23F4005313610C4BDB680B4A43F062
:100640000403D360094BDB68084A43F00803D36016
:10065000064BDB68054A43F40053D360034B00228A
:100660001A6000BFBD4680BC704700BF0038014023
:1006700080B485B000AF78600023FB73054B5B68E6
:10068000DAB27B681A70FB7B18461437BD4680BC13
:10069000704700BF0038014080B483B000AF002332
:1006A000FB71064BDB68054A43F02003D360FB79FE
:1006B00018460C37BD4680BC704700BF003801406B
:1006C00080B485B000AF78600023FB737B68002B9B
:1006D00003D0064A7B68136001E00323FB73FB7BB6
:1006E00018461437BD4680BC704700BF2800002064
:1006F00080B500AF0A4B1B685B0903F00103002BB8
:100700000CD0084B1B68002B02D0064B1B68984787
:10071000034B1B68024A23F02003136000BF80BD17
:10072000003801402800002080B400AF1A4B40F28E
:1007300041329A60184BDB68174A23F48063D36018
:10074000154BDB68144A23F48053D360124B1B69AA
:10075000114A23F4805313610F4B1B690E4A23F493
:10076000005313610C4BDB680B4A43F00403D36066
:10077000094BDB68084A43F00803D360064BDB688B
:10078000054A43F40053D360034B00221A6000BFB4
:10079000BD4680BC704700BF0044004080B485B0B7
:1007A00000AF0346FB710023FB7300BF0A4B1B68BD
:1007B000DB0903F00103002BF8D0074AFB795360F3
:1007C000054B1B68044A23F080031360FB7B18462B
:1007D0001437BD4680BC70470044004080B500AF70
:1007E0000A4B1B685B0903F00103002B0CD0084B7C
:1007F0001B68002B02D0064B1B689847034B1B68F5
:10080000024A23F02003136000BF80BD0044004073
:100810002C00002080B500AFFFF7AAFCFFF7D4FC46
:10082000FCE700000D488546AFF300800C480D49F9
:100830000D4A002302E0D458C4500433C4188C423B
:10084000F9D30A4A0A4C002301E013600432A242A1
:10085000FBD300F011F8FFF7DDFFFEE700280020D2
:1008600000000020000000204009000800000020D7
:1008700030000020FEE7000070B500260C4D0D4C46
:10088000641BA410A64209D100F01AF800260A4DF4
:100890000A4C641BA410A64205D170BD55F8043B58
:1008A00098470136EEE755F8043B98470136F2E7E2
:1008B0003809000838090008380900083C09000810
:1008C000F8B500BFF8BC08BC9E467047F8B500BF3D
:0808D000F8BC08BC9E4670470D
:1008D80000020102020903040402050206020702DB
:1008E800080209090A040B020C020D020E020F028B
:1008F8001002110212021302140215021602170244
:10090800180219021A021B021C021D021E021F02F3
:1009180020022102220223022402250226022702A3
:10092800280229022A022B022C022D022E022F0253
:04093800550100085D
:04093C00310100087D
:0400000508000825C2
:00000001FF
